:020000040000fa
:04005c00600300003d
:020000040000fa
:040010006003000089
:020000040000fa
:04025c00600300003b
:020000040000fa
:040210006003000087
:020000040000fa
:040274006003000023
:020000040000fa
:040334006003000062
:020000040000fa
:040270006003000027
:020000040000fa
:04022c00600300006b
:020000040000fa
:04023c00600300005b
:020000040000fa
:0402bc0060030000db
:020000040000fa
:0402c00060030000d7
:020000040000fa
:0402c40060030000d3
:020000040000fa
:04022800600300006f
:020000040000fa
:04027800600300001f
:020000040000fa
:04029c0060030000fb
:020000040000fa
:040260006003000037
:020000040000fa
:040264006003000033
:020000040000fa
:04027c00600300001b
:020000040000fa
:040280006003000017
:020000040000fa
:040284006003000013
:020000040000fa
:04028800600300000f
:020000040000fa
:0402b00060030000e7
:020000040000fa
:0402b40060030000e3
:020000040000fa
:0402b80060030000df
:020000040000fa
:04023800600300005f
:020000040000fa
:0402c80060030000cf
:020000040000fa
:0402d00060030000c7
:020000040000fa
:0402d40060030000c3
:020000040000fa
:0402d80060030000bf
:020000040000fa
:0402e00060030000b7
:020000040000fa
:0402e40060030000b3
:020000040000fa
:0402e80060030000af
:020000040000fa
:0402f40060030000a3
:020000040000fa
:0402f800600300009f
:020000040000fa
:0402fc00600300009b
:020000040000fa
:040300006003000096
:020000040000fa
:040304006003000092
:020000040000fa
:04030800600300008e
:020000040000fa
:04030c00600300008a
:020000040000fa
:040310006003000086
:020000040000fa
:040314006003000082
:020000040000fa
:04031800600300007e
:020000040000fa
:04031c00600300007a
:020000040000fa
:040324006003000072
:020000040000fa
:04032800600300006e
:020000040000fa
:04033800600300005e
:020000040000fa
:04033c00600300005a
:020000040000fa
:040340006003000056
:020000040000fa
:040344006003000052
:020000040000fa
:04034800600300004e
:020000040000fa
:04026c00600300002b
:020000040000fa
:0402f00060030000a7
:020000040000fa
:04021800600300007f
:020000040000fa
:040230006003000067
:020000040000fa
:040240006003000057
:020000040000fa
:04028c00600300000b
:020000040000fa
:040290006003000007
:020000040000fa
:0402cc0060030000cb
:020000040000fa
:04020c00600300008b
:020000040000fa
:0402dc0060030000bb
:020000040000fa
:040320006003000076
:020000040000fa
:04020800600300008f
:020000040000fa
:04021c00600300007b
:020000040000fa
:040220006003000077
:020000040000fa
:040224006003000073
:020000040000fa
:04026800600300002f
:020000040000fa
:0402ec0060030000ab
:020000040000fa
:04024c00600300004b
:020000040000fa
:04025000f8020000b0
:020000040000fa
:0402a80060030000ef
:020000040000fa
:0402ac0060030000eb
:020000040000fa
:040214006003000083
:020000040000fa
:040234006003000063
:020000040000fa
:040244006003000053
:020000040000fa
:04024800600300004f
:020000040000fa
:04029400d002000094
:020000040000fa
:0402980060030000ff
:020000040000fa
:04032c00600300006a
:020000040000fa
:040254006003000043
:020000040000fa
:04025800600300003f
:020000040000fa
:040330006003000066
:020000040000fa
:0402a00060030000f7
:020000040000fa
:0402a40060030000f3
:020000040000fa
:040074006003000025
:020000040000fa
:040134006003000064
:020000040000fa
:040070006003000029
:020000040000fa
:04002c00600300006d
:020000040000fa
:04003c00600300005d
:020000040000fa
:0400bc0060030000dd
:020000040000fa
:0400c00060030000d9
:020000040000fa
:0400c40060030000d5
:020000040000fa
:040028006003000071
:020000040000fa
:040078006003000021
:020000040000fa
:04009c0060030000fd
:020000040000fa
:040060006003000039
:020000040000fa
:040064006003000035
:020000040000fa
:04007c00600300001d
:020000040000fa
:040080006003000019
:020000040000fa
:040084006003000015
:020000040000fa
:040088006003000011
:020000040000fa
:0400b00060030000e9
:020000040000fa
:0400b40060030000e5
:020000040000fa
:0400b80060030000e1
:020000040000fa
:040038006003000061
:020000040000fa
:0400c80060030000d1
:020000040000fa
:0400d00060030000c9
:020000040000fa
:0400d40060030000c5
:020000040000fa
:0400d80060030000c1
:020000040000fa
:0400e00060030000b9
:020000040000fa
:0400e40060030000b5
:020000040000fa
:0400e80060030000b1
:020000040000fa
:0400f40060030000a5
:020000040000fa
:0400f80060030000a1
:020000040000fa
:0400fc00600300009d
:020000040000fa
:040100006003000098
:020000040000fa
:040104006003000094
:020000040000fa
:040108006003000090
:020000040000fa
:04010c00600300008c
:020000040000fa
:040110006003000088
:020000040000fa
:040114006003000084
:020000040000fa
:040118006003000080
:020000040000fa
:04011c00600300007c
:020000040000fa
:040124006003000074
:020000040000fa
:040128006003000070
:020000040000fa
:040138006003000060
:020000040000fa
:04013c00600300005c
:020000040000fa
:040140006003000058
:020000040000fa
:040144006003000054
:020000040000fa
:040148006003000050
:020000040000fa
:04006c00600300002d
:020000040000fa
:0400f00060030000a9
:020000040000fa
:040018006003000081
:020000040000fa
:040030006003000069
:020000040000fa
:040040006003000059
:020000040000fa
:04008c00600300000d
:020000040000fa
:040090006003000009
:020000040000fa
:0400cc0060030000cd
:020000040000fa
:04000c00600300008d
:020000040000fa
:0400dc0060030000bd
:020000040000fa
:040120006003000078
:020000040000fa
:040008006003000091
:020000040000fa
:04001c00600300007d
:020000040000fa
:040020006003000079
:020000040000fa
:040024006003000075
:020000040000fa
:040068006003000031
:020000040000fa
:0400ec0060030000ad
:020000040000fa
:04004c00600300004d
:020000040000fa
:0400a80060030000f1
:020000040000fa
:0400ac0060030000ed
:020000040000fa
:040014006003000085
:020000040000fa
:040034006003000065
:020000040000fa
:040044006003000055
:020000040000fa
:040048006003000051
:020000040000fa
:040098006003000001
:020000040000fa
:04012c00600300006c
:020000040000fa
:040054006003000045
:020000040000fa
:040058006003000041
:020000040000fa
:040130006003000068
:020000040000fa
:0400a00060030000f9
:020000040000fa
:0400a40060030000f5
:020000040000fa
:080000000002040000000000f2
:020000040000fa
:10040000efab20000e7f22000e01880000000000ec
:10041000000020000000e000020032000001200087
:100420002002880014000700a70007000000e00079
:1004300003003a0040762700010020000200370048
:100440000000200001002000810f70000100320038
:1004500014000700000020000000e000020032004d
:1004600000000200000000009c7802000000000074
:100470000040da000000fe004440a900c003200054
:100480000000e0000300320000002000a00188000e
:100490004440a800000006008a1f78008b1f7800e7
:1004a0000000060091018800800478000000eb0045
:1004b0001a003700e284440032a0b4009905ba0063
:1004c000e284440032a0b4009906ba00e2844400f9
:1004d00032a0b4000006eb00476fde00fd07b2005b
:1004e000636ce10003003a00ebff07000000eb0043
:1004f0000a003700606ce10004003a00005deb0088
:100500008b05e900fdff3e00040037006168e10053
:10051000010032000086eb000b00070019c7ba008b
:100520001905ba000e04e00003003a000a00e000da
:10053000e0ff3a0000000600fe07b2009e018800be
:100540008a047800f5ff3700395dba008b05e900b1
:100550000c003200295dba008b05e900080032006a
:100560000c00e00003003a00e284440032a0b40032
:10057000f5ff370019ddba008b05e900faff3a00f4
:100580008904e800e184440032a0b40000000600c1
:10059000000000000000000000000000000000005b
:1005a0003600f800809fbe00829fbe00849fbe0080
:1005b000869fbe003400f80000002000a0018800e3
:1005c0000000fa008760a900e041800000000100ff
:1005d0000080fa003400f9004f03be004f02be0055
:1005e0004f01be004f00be003600f900004006007b
:1005f0003600f800809fbe00829fbe00849fbe0030
:10060000869fbe003400f80000002000a001880092
:100610000000fa003fc8bf000004e00020003a00dc
:10062000804180000000e900411280000141780013
:10063000a1a92000827078003ec8bf008080fb0026
:1006400080418000808f50000a003400714180009a
:100650008041800000804000104078000080fb0056
:1006600040128800804180000000e800804188003e
:100670000b003700904180000000e00005003200d0
:10068000924180003ec8bf0080407800a0a92000b1
:100690000200010010c0b3003fe8b7009540a90078
:1006a0000080fa003400f9004f03be004f02be0084
:1006b0004f01be004f00be003600f90000400600aa
:1006c0000040da000000fe0000000500839f680083
:1006d0000100e00002003d0060001000e080180012
:1006e0000300e00002003d0060011100e0811900fc
:1006f000050007004f00e00002003b006000100012
:10070000e0801800000006006022b8000602200009
:100710000000d0008180d2000482d2008582d20005
:100720000000a0000202520083825a000300310040
:100730000202420083824a000000a1000603e90091
:10074000f3ff3a0000000600010037000201e90053
:100750000200e0000500320030427800b14178002c
:10076000834f5200f9ff32000100370000000500fe
:100770000480fb008381fb000300500000000600a2
:100780008001780002003700b15978000201e900c9
:100790000200e000fcff3a00000006008001780043
:1007a00081027800810f50003b003200028240003d
:1007b000840f50000300310002024000848f50007b
:1007c00001003900eeff370000826800810f500001
:1007d0001b0031000408a30005003200150037009b
:1007e0000200e0002c0032000201e900b15978005b
:1007f0000308a300faff3a0003037800820278009e
:100800000102780002003700b41978000281e90083
:10081000e10f5100fcff3e00618162000500a10074
:10082000850143008582400002003700b5597800f9
:100830000201e9000200e000fcff3a0000000600af
:100840000408a30012003a00040037000200e00090
:10085000110032000201e90061707900820140005c
:100860000308a300f9ff3a00820178000200370074
:100870000281e90061307900e10f5100fcff3e0088
:1008800061816100020037000201e90061707900b6
:0c0890000200e000fcff3a00000006003f
:020000040000fa
:10c000000000000000000000000000000000000030
:10c010000000000000000000000000000000000020
:10c020000000000000000000000000000000000010
:10c030000000000000000000000000000000000000
:020000040000fa
:04009400d002000096
:020000040000fa
:04005000f8020000b2
:020000040000fa
:020000040001f9
:0457fc003f3f00002b
:020000040000fa
:020000040001f9
:0457f8009b79000099
:020000040000fa
:10c800000000000001050000000100000000000021
:10c81000d2780000010000000100000000010000cb
:10c8200028080000000000000200000002040000d0
:10c8300001010000240800000000000004000000c6
:10c8400002020000000100002a08000000000000b1
:10c8500006000000020400000000000024080000a0
:10c860000000000000040000a311000022330000bb
:08c87000c0a80000001e00003a
:020000040000fa
:10c878000800fa00000f78001107980022079800b6
:10c8880033079800130037001e0078001040780026
:10c898000080fb00c800dd001e00e80010407800a2
:10c8a8000080fb00010070008000eb002e0190006a
:10c8b800be019000020040008380480020079800d5
:10c8c800310798001e8fe8001e0090000080e900e4
:10c8d800100798001e009000e10f5000eaff3e008c
:10c8e8001e0090000000e0000b0032001e007800df
:10c8f800104078000080fb004800dd008000eb005d
:10c908002e019000be019000020040008380480084
:10c9180020079800310798002e009000be00900074
:10c928000080fa00000006000400fa00008fbe0034
:10c9380011003700f0ff2f00010020001e02be008a
:10c9480004037800050278008002780081007800ee
:10c958000500630081006200810178000001780011
:10c968000202be001e00be004008de0001002000da
:10c97800001f420001974a001e00be004008de006a
:10c9880001002000e00f5000e08f5800e9ff3a0056
:10c998001e0078000080ea000080fa00000006000f
:10c9a8000400fa00000f7800110798009e0090001c
:10c9b80090022000808f50001d0036009e007800f5
:10c9c8006c80400010407800e84f500018003a0092
:10c9d8009e0078006d80400010407800e64f5000bf
:10c9e80013003a009e0078007480400010407800e0
:10c9f8000004e0000e003a009e00780075804000b8
:10ca080010407800e14f500009003a006102200010
:10ca18001e8040004200200081432e0048cf0700be
:10ca28000000e00002003a0010002000010037007a
:10ca38000000eb000080fa00000006000200fa0087
:10ca4800000f78009e007800668040006200200099
:10ca5800800078001e00780047cf07001e0178008c
:10ca6800660041006200200021432e0042cf0700eb
:10ca78009e0078007580400021c0b300014878000e
:10ca88001e017800f6004100020220001e0041004d
:10ca9800a200200038cf07009e0078007680400072
:10caa8006200200021432e0033cf07001e017800ca
:10cab8007c0041004200200081432e002ecf070059
:10cac800a10220001e007800200607000080fa005e
:10cad800000006000600fa001007980021079800d9
:10cae800ae00900090022000808f50002700360092
:10caf8006200200021432e001e00900010cf070086
:10cb08000000e00021003a001e0090006c00400088
:10cb180010407800e84f50001c003a001e009000ba
:10cb28006d004000104078000004e00017003a0053
:10cb38001e0090006e0040009040780050c4b30082
:10cb480080cf500011003a001e009000770040008e
:10cb580010407800e14f50000c003a001e00900091
:10cb68007e0040004200200081432e00f4ce0700e2
:10cb78000000e00005003a001e0090002002b0000e
:10cb880010407800e84f5000020032000000eb002f
:10cb9800150037001e00900070004000104078001b
:10cba8000080fb00c800dd001e00900071004000fe
:10cbb800104078000080fb00008f70001e00780095
:10cbc800fb0f5000070036001e017800ee00410000
:10cbd8002e009000808f500002003e0010002000c0
:10cbe800010037000000eb000080fa00000006009a
:10cbf8000600fa00200798002e0090007000400000
:10cc0800104078000080fb00c800dd002e00900076
:10cc180071004000104078000080fb00008f700019
:10cc28002e0090006600400062002000800078001e
:10cc38002e009000d0ce07002e0090006600400025
:10cc48006200200021432e00cbce07002e0090006a
:10cc5800fa0040002e0090007e00400042002000b4
:10cc6800c5ce07002e0090007a0040004200200048
:10cc780081432e00c0ce07002e00900076004000b1
:10cc880001c4b300014878002e00900078004000ed
:10cc98008040eb00014878002e00900079004000a9
:10cca8008040eb00014878002e0090006e004000a4
:10ccb8006011b80041012000edfe07001aff0700cf
:10ccc800100798002e009000780040009e00900009
:10ccd800c808de0081407800014878002e009000e6
:10cce800790040009e00900081407800014878005b
:10ccf8002e0090002002b0008040eb000148780030
:10cd08002e0090004002b0008040eb0001487800ff
:10cd18002e0090005002b0008040eb0001487800df
:10cd28001e017800f40051002e0090002002b0008f
:10cd38006011b800cefe0700fbfe07001007980040
:10cd48002e0090004002b0009e009000c808de004f
:10cd580081407800014878002e0090005002b00011
:10cd68009e00900081407800014878009e0078007d
:10cd78006e804000800078002e0090007305070048
:10cd88000080fa00000006000400fa00100798006e
:10cd98000000eb00000f7800220037001e0078002a
:10cda8006a00b9008000780000402e000080400032
:10cdb800900078001e009000808f500018003e0000
:10cdc8001e0078006a00b9008000780000402e003c
:10cdd80000804000100178001e0078006a00b90049
:10cde800000078008080e80000402e0000804000ad
:10cdf800104078000080fb00800041001e00900079
:10ce0800808f5000060036001e0078006a00b900c6
:10ce18008000780000402e000080400005003700a8
:10ce28001e0fe8001e007800e40f5000dbff3600fc
:10ce38000000eb000080fa00000006000800fa007d
:10ce4800300798003e009000cfff0700000f7800e1
:10ce58001e0078000000e00002003a000000eb002d
:10ce6800330037001e007800304090000080fb003f
:10ce78000000e0000b003500e10f50000300340013
:10ce8800e50f500005003200060037001e0078004c
:10ce98003000900010007800250037000000eb00fb
:10cea800230037001e007800b00090000e80e800d4
:10ceb8004200200030ce07001e0078009000780065
:10cec8003e009000808f50000d003a001e00780050
:10ced800404090000004e00005003a001e00900069
:10cee800ae0090004008de00000078000300370024
:10cef8001e009000ae009000000078000c00370083
:10cf08001e007800404090000004e00004003a0051
:10cf18001e009000ae00900000007800040037006a
:10cf28001e009000ae0090004008de00000078006f
:10cf38000080fa00000006000800fa0020079800a8
:10cf480031079800ae009000010f780020003700ec
:10cf58001e0078008cff0700100798001e00900044
:10cf68000000e000040032001e00900050409000d5
:10cf7800e14f50000200320020c0b3001a00370011
:10cf88001e00900020409000e24f50000f003a0031
:10cf98001e009000900078002e009000808f5000b6
:10cfa800080039001e009000100078008080e8001a
:10cfb8002e0190003e00900000004100808f50003c
:10cfc8000200360030c0b300070037001e0fe8002b
:10cfd800ae0090003e009000008040009e0f500080
:10cfe800dbff3e000040eb000080fa000000060076
:10cff8001200fa006007980071079800020f980065
:10d00800ee009000010f7800590037001e007800ec
:10d018005dff0700100798006e0090001e001000ca
:10d02800000040008e08900000804000104078000a
:10d038000080fb00c800dd006e0090001e0010009c
:10d04800000040000000e8000e09900000004100c8
:10d05800104078000080fb00010070002007980055
:10d068001e009000304090000004e00004003200f0
:10d078001e00900030409000e14f500006003a003a
:10d088001e00900030009000ae009000010878006b
:10d098001e0fe800360037001e0090003040900058
:10d0a800e54f500002003a001e0fe800300037003c
:10d0b8006e0090001e0010000000e8000000400014
:10d0c8008e08900000804000104078000080fb002f
:10d0d800c800dd006e0090001e0010000000400037
:10d0e800630040000e0990000000410010407800e5
:10d0f8000080fb0001007000300798001e009000bf
:10d10800404090000004e00009003a002e00900022
:10d118008000eb00c001dd00020020003e0090000e
:10d128008000eb000000710081807100080037006a
:10d138003e0090008000eb00c001dd0002002000ee
:10d148002e0090008000eb000000710081807100cb
:10d1580040079800510798001e009000300090008a
:10d16800e80047004200200083cd07001e8fe8003a
:10d17800ee0090007e009000008040009e0f50005e
:10d18800a2ff3e000080fa00000006000a00fa0034
:10d19800200798003107980042079800ae009000d9
:10d1a800010f78001f0037001e007800f6fe070008
:10d1b800100798001e009000400090000000e0005a
:10d1c800140032001e009000c00090002e00900055
:10d1d8001e001000000040004e01900000004100b9
:10d1e800104078000080fb004801dd002e00900010
:10d1f8001e001000000040000000e800ce01900072
:10d2080000804100104078000080fb0002007000a0
:10d21800010001001e009000204090000080fb00eb
:10d228001e0f4000ae0090003e00900000804000bd
:10d238009e0f5000dcff3e000080fa000000060050
:10d248001000fa0060079800710798006e009000bf
:10d2580090407800214798007e009000e40f50002d
:10d268000b003e002e409000804078000174a00022
:10d278006e009000014878006e0090000000e80001
:10d2880011c0b3000148780020002000d900370001
:10d298006e0090000000e800104078000080fb005d
:10d2a800c800dd006e0090000080e80010407800a3
:10d2b8000080fb0001007000200798006e009000bd
:10d2c80063004000104078000080fb00c800dd00cb
:10d2d8006e00900064004000104078000080fb0061
:10d2e80001007000300798002e4090000080fb007d
:10d2f800e60f500040003200f00f50006c00320082
:10d30800e30f5000b1003a003e0090000000e0003a
:10d31800080032003e009000f40f500005003e0067
:10d32800ae0090003e00900000804000f40f5000d6
:10d338000b0036002e409000804078000174a00059
:10d348006e009000014878006e0090000000e80030
:10d3580021c0b3000148780020002000a500370054
:10d368006e0090008000e8003e00900000407800c9
:10d3780000404000804878000000eb00000f780073
:10d38800150037002e0090001e004000abfe07007d
:10d39800400798001e00e80000004000ee009000e2
:10d3a80000804000ce009000c808de008140780070
:10d3b800014878001e00780000004000630040002b
:10d3c800ee00900000804000ce0090008140780080
:10d3d800014878001e0fe8003e0090009e0078008b
:10d3e800808f5000e7ff39003e0090000000e80001
:10d3f800000040007f0037002e009000f30f50001f
:10d408000b0036002e409000804078000174a00088
:10d418006e009000014878006e0090000000e8005f
:10d4280021c0b300014878002000200071003700b7
:10d43800110020002e009000bffe0700204f98002a
:10d448002e4890000004e0000b0032002e409000af
:10d45800804078000174a0006e00900001487800b8
:10d468006e0090000000e800ae4890000148780087
:10d47800200020005f0037006e009000630040002d
:10d4880000017800110020002e009000d8fe07004f
:10d498006e00900063004000000178001100200039
:10d4a8002e00900039ff070050002000510037007f
:10d4b8003e0090000000e00019003200ae0090002d
:10d4c8003e00900000804000f40f500014003e0021
:10d4d8007e009000e50f5000110036006e009000ad
:10d4e80065004000104078008080fb003e009000fe
:10d4f80000004000808f500009003a006e00900044
:10d5080065004000104078000080fb006600400085
:10d51800800078007e009000808f50000b0036005d
:10d528002e409000804078000174a0006e009000aa
:10d53800014878006e0090000000e80021c0b300a8
:10d5480001487800200020002a003700be00900023
:10d558002e00900078fe0700204f98002e4890007b
:10d568000004e0000b0032002e409000804078005c
:10d578000174a0006e009000014878006e009000d1
:10d588000000e800ae489000014878002000200024
:10d59800180037006e009000660040000001780017
:10d5a800be0090002e00900091fe07006e009000d3
:10d5b8006600400000017800be0090002e00900038
:10d5c800f2fe0700500020000a0037002e409000ad
:10d5d800804078000174a0006e0090000148780037
:10d5e8006e0090000000e80011c0b3000148780008
:10d5f800200020000080fa00000006002a00fa003f
:10d6080030179800411798000000eb00000f7800d1
:10d61800ce10900050032000808f5000220036006a
:10d628006200200021432e003e10900044cc0700e9
:10d638000000e0001c003a003e1090006c00400022
:10d6480010407800e84f500017003a003e10900054
:10d658006d004000104078000004e00012003a001d
:10d668003e1090006e0040009040780050c4b30017
:10d6780080cf50000c003a003e1090007700400028
:10d6880010407800e64f500007003a003e10900026
:10d698007e0040004200200081432e0028cc070075
:10d6a8000000e000020032000000eb00d301370068
:10d6b8003e10900070004000104078000080fb0091
:10d6c800c800dd003e109000710040001040780056
:10d6d8000080fb000100700060079800ee009000d9
:10d6e80070022000808f5000050036006e00900008
:10d6f800ee0040004e109000808f5000020036006f
:10d708000000eb00bd0137003e1090004002b00061
:10d71800104078000080fb00c800dd003e1090003b
:10d728005002b000104078000080fb0081007000bb
:10d73800601f2000808f5000020032000000eb00c4
:10d74800ae0137003e109000e002b00010407800b3
:10d758000080fb004400de00004078000080fb00f1
:10d768004200dd0070079800ee0090007e009000f7
:10d778000080500074005000000f98003e10900088
:10d78800f002b00090407800215798003e109000b9
:10d798006002b000104078000080fb008000eb00c1
:10d7a800c801dd00020020003e1090007002b000a9
:10d7b800104078000080fb008000eb00c000dd0016
:10d7c8000000200000017100818171003e1090006e
:10d7d8008002b000104078000082fb008002eb005d
:10d7e8004828dd00c820de00810070004820dd00e8
:10d7f80000017100818171003e1090009002b0001c
:10d80800104078000080fb008000eb0000007100f1
:10d8180081807100200f9800310f98003e10900011
:10d82800a002b000104078000080fb008000eb00f0
:10d83800c801dd00020020003e109000b002b000d8
:10d84800104078000080fb008000eb00c000dd0085
:10d858000000200000017100818171003e109000dd
:10d86800c002b000104078000082fb008002eb008c
:10d878004828dd00c820de00810070004820dd0057
:10d8880000017100818171003e109000d002b0004b
:10d89800104078000080fb008000eb000000710061
:10d8a80081807100400f9800510f98002e50900011
:10d8b8000080fb00640060000000e000020032000d
:10d8c8000000eb004d0137002e5090000080fb0057
:10d8d80073006000e20f50000d003a0020c1b30051
:10d8e800204f9800d0c42300b1a22100100798004f
:10d8f800210798002e089000be08900061004000a3
:10d90800e08048003007980041079800550037002c
:10d918002e5090000080fb006100600000407800fd
:10d928000004e0001100320010c1b300204f98003d
:10d938004e099000de09900012079800230798000e
:10d948000e0890006101b8002e089000be089000f3
:10d95800020040008380480061004000e0804800e9
:10d9680030079800410798003e0037000e089000e5
:10d978000000e000390032007e0090002002b00074
:10d98800be10900000804000600f98000e089000c4
:10d99800e70f500002003e000000eb0017013700bf
:10d9a8000e089000e70050006e08900067004000e5
:10d9b80023fe0700700f98006e0890006400400076
:10d9c800fe0890008100e800c808de008140780069
:10d9d800014878006e08900065004000fe0890003d
:10d9e800814078008140e800014878007e08900076
:10d9f800670f40007e009000f40f500008003200ce
:10da08007e0090002002b000be1090008080400090
:10da18003e1090006003b0001e0178005dcb070047
:10da280080c1b300204f98004e099000de09900095
:10da380012079800230798000e0890006101b800ab
:10da48002e089000be089000020040008380480025
:10da58003007980041079800020037000000eb00eb
:10da6800e60037003e10900066004000620020008b
:10da7800800078003e1090003fcb07003e109000d9
:10da8800660040006200200021432e003acb0700c8
:10da98003e109000fa0040003e1090007e004000ca
:10daa8004200200034cb07003e1090007a0040006e
:10dab8004200200081432e002fcb07008302200064
:10dac8001e804100600798003e10900070004000e2
:10dad800ee009000c808de00814078000148780018
:10dae8003e10900071004000ee00900081407800e8
:10daf800014878003e1090007600400001c4b30051
:10db0800014878003e109000780040008040eb000b
:10db1800014878003e109000790040008040eb00fa
:10db2800014878003e1090006e0040006011b80077
:10db3800410120004efb07007bfb070000179800ff
:10db48003e109000780040008e109000c808de005b
:10db580081407800014878003e109000790040002c
:10db68008e10900081407800014878003e109000a7
:10db78004002b000be1090002102b0009140780031
:10db8800014878003e1090005002b000be1090008e
:10db98003102b00091407800014878003e109000b2
:10dba8002002b00011c0b300014878003e10900078
:10dbb8003002b00061cfb300014878003e109000f9
:10dbc80062022000000141001e009000ae0090009b
:10dbd8004808de0000407800004978003e109000b8
:10dbe80072022000000141001e009000ae0090006b
:10dbf8004008de0000407800004978003e109000a0
:10dc080082022000000141001e009000ae0090003a
:10dc1800c809dd004800de0000807100c808de0089
:10dc280000407800004978003e1090009002b00053
:10dc38009e00900081407800014878003e109000d6
:10dc4800a2022000000141003e009000ce0090009a
:10dc58004808de0000407800004978003e10900037
:10dc6800b2022000000141003e009000ce0090006a
:10dc78004008de0000407800004978003e1090001f
:10dc8800c2022000000141003e009000ce0090003a
:10dc9800c809dd004800de0000807100c808de0009
:10dca80000407800004978003e109000d002b00093
:10dcb800be00900081407800014878003e10900036
:10dcc800e002b00001c5b300014878003e109000a2
:10dcd800f002b000ae489000014878003e10900075
:10dce8000003b00021c0b300014878003e10900046
:10dcf8001003b00081c5b300014878003e109000c1
:10dd08002003b0008040eb00014878003e109000ee
:10dd18003003b0008040eb00014878003e109000ce
:10dd28004003b0008040eb00014878003e109000ae
:10dd38005003b0008040eb00014878003e1090008e
:10dd48007a0040006011b80081002000c8fa07007e
:10dd580010179800211798001e109000ae10900020
:10dd680066004000e08048001017980021179800ce
:10dd78001e017800740041008000eb001e11900025
:10dd8800ae119000020040008380480010179800f0
:10dd9800211798009e017800f48041003e10900001
:10dda8002002b0001e119000ae119000b0fa0700da
:10ddb80010179800211798001e109000ae109000c0
:10ddc800d9fa0700001798003e1090002003b00011
:10ddd8008e109000c808de00814078000148780065
:10dde8003e1090003003b0008e1090008140780003
:10ddf80001487800610320001e8040000080fa007e
:10de0800000006000000fa0020432e00bc000700b6
:10de18000080fa00000006000400fa0081252000b6
:10de280020842000b4010700000f78001e0078004d
:10de38000000e0001b0032009e00780020842000d3
:10de4800d7fa07000000e000030032002084200019
:10de5800fafa0700140037009e007800208420009a
:10de68001cfb07000000e0000300320020842000b3
:10de78005ffb07000c0037009e007800208420001c
:10de8800defd0700100798001e0090000000e0006b
:10de9800050032009e009000208420002b0107001e
:10dea80001003700000000000080fa0000000600b2
:10deb8000400fa0020479800cb62a9002e40900089
:10dec8007f406000890207000040eb0087020700de
:10ded800004f7800cb62a8001e4078000080fa004e
:10dee800000006000400fa0020479800cb62a90051
:10def8002e4090007f4060007c0207000040eb004d
:10df08007a0207000040eb0078020700004f780013
:10df1800cb62a8001e4078000080fa0000000600ce
:10df28000200fa00004f780011479800cb62a90060
:10df38001e4078007f4060000064a0006b0207006c
:10df48001e40900069020700cb62a8000080fa001a
:10df5800000006000400fa00004f780011479800fe
:10df680022479800cb62a9001e409000ff40600045
:10df78001e40780000c070005c0207002e40900030
:10df88005a020700cb62a8000080fa0000000600d1
:10df98000200fa00004f780032c0b300f1c1b300ac
:10dfa80000cab300ebff07001e80fb00630060009f
:10dfb8000000e000060032009e40780063c0600068
:10dfc80000417800f1c1b30000c8b300e1ff0700c9
:10dfd8000080fa00000006000400fa0020479800bc
:10dfe80020c0b300eaff0700ae40900040c1b30074
:10dff800cbff070011c0b30020c1b300c8ff070062
:10e00800000b2000010020005104070030c0b300bd
:10e01800dfff070000000000a0c0b300b1ff070049
:10e028000080fb0061006000004078000004e00010
:10e03800f9ff3a0020c0b300d5ff07008040eb008d
:10e0480020c1b300b6ff070080c1b300a5ff0700d9
:10e058000080fb00000f780090c1b300a1ff07000b
:10e068000080fb004800dd001e0f70001e007800d5
:10e078000080fa00000006000400fa00004f780053
:10e088001107980020c0b300c1ff07009e40780028
:10e0980040c1b300a2ff07001e00900000407800b6
:10e0a8008040780060c1b3009dff07001e0090000b
:10e0b8004800de00004078008040780070c1b3005e
:10e0c80097ff0700000b2000010020002004070034
:10e0d80030c0b300aeff070000000000a0c0b300ce
:10e0e80080ff07000080fb006100600000407800ae
:10e0f8000004e000f9ff3a000080fa000000060082
:10e108000400fa0010079800c962a900cb62a800b1
:10e11800c942a900cb42a8008040eb000040eb00b8
:10e1280069010700cb42a90000d0270001002000a8
:10e1380007040700cb42a80000d0270001002000f8
:10e14800030407000000eb00000f78000b00370005
:10e15800d0c1b30056ff07000080fb0061006000db
:10e16800004078000004e00009003a000064200044
:10e1780001002000f60307001e0fe800703e200093
:10e188009e007800808f5000f1ff360001003700b4
:10e19800000000000040eb007dff07008040eb001e
:10e1a80080c0b3005eff07008040eb0090c0b30062
:10e1b8005bff070080c0eb00a0c0b30058ff07005a
:10e1c80091c1b300b0c0b30055ff07008040eb0019
:10e1d800c0c0b30052ff07008040eb00d0c0b300be
:10e1e8004fff070020c0b30069ff0700d1c0b3008c
:10e1f8000040eb004aff070021c3b30020c0b30072
:10e2080047ff070001c4b30030c0b30044ff070054
:10e21800e1ceb300a0c0b30041ff070051c0b30076
:10e22800b0c0b3003eff070021c1b30040c0b30037
:10e238003bff070021c1b30060c0b30038ff0700ef
:10e24800c1c0b30070c0b30035ff070030c0b300d1
:10e258004fff07001e0090001040780080407800b3
:10e2680040c0b3002eff07001e0090000000e80029
:10e27800104078008040780050c0b30028ff0700a5
:10e288001e0090000080e800104078008040780070
:10e2980020c0b30022ff07001e009000630040006a
:10e2a800104078008040780030c0b3001cff0700a1
:10e2b8001e00900064004000104078008040780004
:10e2c8000040eb0016ff07001e00900065004000ac
:10e2d800104078008040780010c0b30010ff07009d
:10e2e8008000eb000040eb0063ff070001102000f6
:10e2f80000c1b30060ff07004028ef0042c0b30030
:10e30800f1c1b30000c8b30012ff07000080fa0093
:10e31800000006000000fa0030c0b3001cff070030
:10e3280020c1b300e2fe07000080fa0000000600ea
:10e338000000fa0010c1b30027ff07004a00de0002
:10e34800610060000080fa00000006000800fa0082
:10e358002007980031079800be00900000a0210017
:10e36800008040001007980002c8b300f1c1b30054
:10e3780000c8b300f7fe070002c8b300f1c1b3003c
:10e3880000cab300f3fe0700a2c0b300c1c1b300c6
:10e3980000cab300effe07000040eb00fcfe0700d8
:10e3a8008040eb0040c0b300ddfe0700a1c1b30010
:10e3b80050c0b300dafe07008040eb0020c0b30075
:10e3c800d7fe0700a1c1b30030c0b300d4fe0700d8
:10e3d800cb62a900a0c7b300440107000040eb00ce
:10e3e800420107000000eb00000f7800050037002d
:10e3f8002e0090001e004000104078003b010700ee
:10e408001e0fe8003e0090009e007800808f5000ac
:10e41800f7ff3900cb62a8001e009000004078008a
:10e428008040780060c0b300bdfe07001e00900069
:10e438004800de00004078008040780070c0b300db
:10e44800b7fe070082c0b300f1c1b30000c8b30033
:10e45800c0fe07000000eb00000f78000a0037003c
:10e46800f0c1b30092fe07000080fb006800600066
:10e478000000e00009003200000a2000010020002e
:10e48800330307001e0fe800f07022009e0078009a
:10e49800808f5000f2ff36000100370000000000b6
:10e4a800f0c1b30082fe07000080fb006800600036
:10e4b8000000e0000600320082c0b300f1c1b300e2
:10e4c80000cab300a3fe07000000eb0008003700f5
:10e4d800d0c1b30076fe07000080fb006200600038
:10e4e80000f0a7000000ea000000e9004f00de008d
:10e4f8000080fa00000006001000fa00881f78006b
:10e50800600798007107980010c0b300a0fe0700cc
:10e5180090c1b30066fe07000004e00002003a0064
:10e528000000eb00650037000040eb0098fe070094
:10e538000042800000407800804078000040eb00f6
:10e5480077fe0700004280004800de0000407800a7
:10e558008040780010c0b30071fe0700cb62a900ac
:10e56800a0c3b300e10007000000eb00100798000b
:10e57800090037000040eb00dc0007006601470097
:10e588009e00900081004100804878001e009000a5
:10e598000000e800100798001e009000e50f5000ea
:10e5a800f4ff36006e4090008080fb007e409000b3
:10e5b8000080fb004800dd00010070000042880078
:10e5c8000e4890008080fb001e4890000080fb00f1
:10e5d8004800dd00008f70002e4890000004e00025
:10e5e800030035000000eb00000f7800050037003d
:10e5f8001e007800e30f5000020036009e007800ed
:10e60800648f50007e0090009e007800808f50003c
:10e6180002003600fe009000010f78000000eb00b9
:10e628001007980009003700ee0090001e009000c7
:10e63800008440000040eb00ac000700004c78006c
:10e648001e0090000000e800100798001e009000cf
:10e658009e0f5000f4ff3900cb62a80000428000f2
:10e668000000e00003003200004280000000e900e2
:10e6780001003700f09f2100200798002e0090002d
:10e688000040780080407800c0c0b30024fe070036
:10e698002e0090004800de0000407800804078009e
:10e6a800d0c0b3001efe070002c4b300e1c1b3002e
:10e6b80000c8b30027fe07001e0078004f0478004a
:10e6c8000080fa00000006000200fa00004f7800ff
:10e6d80011479800c9a2a900c982a900c9c2a80007
:10e6e800113a8000f00b20000081600060042000d7
:10e6f8007105200023742000804978008149780042
:10e708008249780061368000f00f2e00808060001a
:10e7180000702000010070006036880061368000bb
:10e7280000fe2f00008060000030a00060368800e6
:10e738004135800000fe2f0000806000e000b3003b
:10e7480040358800103a8000000178000260a0007f
:10e75800600420007105200023742000804978009f
:10e76800814978008249780041e2a90041a2a900c4
:10e778004822ef008540a9009540a9004105800086
:10e78800f08f2f00008060000080a0004005880006
:10e798004382a9004362a9009e40780061c06000de
:10e7a8000080fb00610060004a00dd00111280005b
:10e7b80001a0a10001007000101288001e40900006
:10e7c8000080fb00e30f50001e003200e30f5000f2
:10e7d80007003c00e10f500012003200e10f50002a
:10e7e80014003c000000e0000a0032002900370055
:10e7f800e50f50001b003200e50f500015003500f2
:10e80800e60f50001b003200e70f50001d003200d9
:10e81800200037004322a90042c2a9004302a800f1
:10e828001c0037004322a90042c2a8004302a900e5
:10e83800180037004322a80042c2a9004302a800da
:10e84800140037004322a80042c2a8004302a900ce
:10e85800100037004322a80042c2a9004302a900c1
:10e868000c0037004322a90042c2a8004302a800b6
:10e87800080037004322a90042c2a9004302a900a8
:10e88800040037004322a80042c2a8004302a8009f
:10e898000000000042e2a9001112800030fe2f00a3
:10e8a800008060008001b300101288001012800000
:10e8b8003000b3001012880042a2a8004422ef00e2
:10e8c80041e2a8000080fa00000006000000fa00fb
:10e8d80041e2a8000080fa00000006000000fa00eb
:10e8e80041e2a9000080fa00000006000400fa00d6
:10e8f800204798002e4090000080fb0040128800be
:10e908000000000000128000610060000000e000cc
:10e91800fcff320040128000004f78001e40780053
:10e928000080fa00000006000400fa0010079800b2
:10e938009e00900041128800000000000012800034
:10e94800610060000000e000fcff3200411280001e
:10e95800010f78001e0078000080fa000000060011
:10e968000200fa000200370040128000004f7800d1
:10e9780000128000610060000000e000faff3a0029
:10e988000080fa00000006000600fa00000f780078
:10e9980021479800220798003fc8bf000004e00004
:10e9a800150032009540a8002e0090009041880084
:10e9b8002e419000e1832000824878009e00780074
:10e9c800714188003028ef003f68ef0071418000f6
:10e9d8008041800000804000104078000080fb00eb
:10e9e80040128800804180000000e80080418800d3
:10e9f80010c0b300010037000040eb000080fa00af
:10ea0800000006001600fa00100f9800210f980069
:10ea1800b2ff07000040eb00004f78000040eb0019
:10ea2800104798000080eb008080eb0010079800ea
:10ea3800210798000040eb00604798005600370017
:10ea48006e409000e34f5000070032006e40900087
:10ea58000080fb0062001000410020000008dd007b
:10ea6800004078000100370010c0b300004f980044
:10ea78000040eb00704798004100370081c0b300a8
:10ea88007e40900000c05000104f98006e409000eb
:10ea9800e34f500003003a007e409000e74f5000db
:10eaa800330032000e4890008080fb001e48900022
:10eab8000080fb000088b90000007800cf80de00ed
:10eac8000001be0000402200410f2000fdc60700e3
:10ead80050079800610798005e019000ee019000d1
:10eae8001e089000ae089000800f5100818f5900d9
:10eaf800070036005e019000ee0190001e089000ad
:10eb0800ae089000000051008180590006003700cf
:10eb18001e099000ae0990005e009000ee00900083
:10eb2800000051008180590070079800010f98007b
:10eb38007e0190008e0990001e009000ae009000ab
:10eb4800800f5100818f59000a0031007e0190002a
:10eb58008e0990001207980023079800ee41900054
:10eb6800034f7800fe4090001147980001003700dd
:10eb7800000000007e4090000040e80070479800c8
:10eb88007e409000e74f5000bcff36006e4090007a
:10eb98000040e800604798006e409000e34f500046
:10eba800a7ff36001e417800634061000080fb002b
:10ebb8006300600012128000c1ff2f008100610015
:10ebc80001007000101288001e409000674060002d
:10ebd8000080fb00670060004200dd001212800028
:10ebe80031fe2f00810061000100700010128800c2
:10ebf80036ff07000080fa00000006000000fa0057
:10ec0800c04180000000e00007003200c0ab2000d7
:10ec180080c0eb0001487800d1418000000020004e
:10ec2800a2ab2000390007000080fa0000000600af
:10ec38000200fa00004f7800c0418000a1ab20001c
:10ec48001e417800827078000000e800c04188000a
:10ec5800c0418000e20f500009003600d141800019
:10ec680000002000a2ab200028000700d04180004f
:10ec78000080e800d04188003828ef000400370001
:10ec8800c0418000a1ab200000c1eb008270780079
:10ec98000080fa00000006000800fa00100798003b
:10eca80021079800320798001e0090000040780065
:10ecb80032e0b700ae009000010f78001e00780027
:10ecc8001000ba00804078003e00900001487800ab
:10ecd8003e0090000000e8009e0078009100ba0015
:10ece800c808de0081407800014878003e009000a6
:10ecf8000080e8009e0078009180ba00814078008a
:10ed0800014878000080fa00000006000c00fa00b4
:10ed180030079800410798005207980030002400f7
:10ed2800003b88004e009000800078000100a100a0
:10ed3800010f78003e0090000040780032e0b700f4
:10ed48005e0090000000e800104078000000fb0022
:10ed5800100798001e0090004800dd00100798007a
:10ed68005e009000104078008000fb00f00f20004b
:10ed7800008060009e00900001007000100798005d
:10ed88005e0090000080e80010407800404798003e
:10ed98001e0078009e0090000108bb004e409000c5
:10eda8008080fb001e0078000188bb000500fc0085
:10edb80050052000303b8800a00a2000303b880026
:10edc80061e7a8000000000000000000000000004b
:10edd800013b800000002800008060000000e00087
:10ede800fbff3a000080fa00000006000600fa0067
:10edf800100798002107980020042400003b880091
:10ee0800ae00900000f02f00008f60001e00900000
:10ee18000040780032e0b7001e0078008000eb0068
:10ee28000108bb000500fc0050052000303b8800ad
:10ee3800a00a2000303b880061e7a800000000001d
:10ee48000000000000000000013b800000002800d6
:10ee5800008060000000e000fbff3a000080fa003c
:10ee6800000006000200fa00c04180000000e00037
:10ee780007003a00d141800000002000a2ab20002a
:10ee880085ff0700d04180000080e800d04188005d
:10ee9800c0418000a1ab2000614f78000000e8006d
:10eea800c0418800c0418000e20f500001003600d8
:10eeb8003828ef001e4078000080fa0000000600a5
:020000040000fa
:10eec8003c080000020000000000000034080000b8
:10eed80004000000000000009a0a00002000000062
:10eee800000000002e0800000600000000000000de
:10eef8003e080000020000000200000008010000b7
:10ef08004008000002000000000000004208000065
:10ef18005802000000000000000800001000000077
:10ef280002000000313932002e313600382e300010
:10ef38002e33300000000000000000001008000020
:10ef4800120000000200000030303a0030343a006d
:10ef580041333a0031313a0032323a00333300005b
:10ef6800220800000200000002000000f601000074
:10ef7800ba0a0000040000000200000000002d0092
:10ef88002d00000038080000040000000000000008
:10ef9800240800000a000000000000000000000033
:020000040000fa
:10efa8000200fa003828ef000100260000002000c7
:10efb8008eff070000002600d0418800e0c4b3009f
:10efc8001bff070000802000000f780004003700b6
:10efd8001e0078001040780015ff07001e0fe8009b
:10efe800408220009e007800808f5000f8ff390092
:10eff80002ff07000080fa00000006000200fa0085
:10f008003828ef0000002600d041880095ff07004f
:10f01800e1c4b300814f50000c003a00008020008a
:10f02800000f7800040037008eff07009e0078006c
:10f03800804878001e0fe800408220009e0078007b
:10f04800808f5000f8ff39000100370000000000f1
:10f058000080fa00000006000000fa00c8e2a900db
:10f068000080fa00000006000200fa00004f780055
:10f078001e80fb00e10f500006003200e20f500036
:10f08800060032000000e0000d003a00cae2a900c4
:10f098000b003700cae2a8000900370051168000ab
:10f0a80000082000008060000000e000020032003c
:10f0b800cae2a90002003700cae2a8000000000066
:10f0c8000080fa00000006000000fa00a04180005d
:10f0d800b14180000080fa00000006000000fa003c
:10f0e800a0418000b141800061004000e0804800fc
:10f0f800a0418800b14188000080fa0000000600a5
:10f108000000fa00208727002c0007000080fa0082
:10f11800000006000000fa0000042300203a8800de
:10f128000080eb00601988000080fa0000000600eb
:10f138000000fa00f7ff0700f1ff0700c6ff07000d
:10f1480030fb07001000070033fb0700feff370005
:020000040000fa
:10f15800f03fb1000180b10006003500ee03090060
:10f1680000000000403fb1000180b100fbff3d00fe
:10f178001000b000203fb0000200350000800900f8
:08f18800000000000000060079
:020000040000fa
:10f190000000fa0010c0b300b5ff07000080fa00bd
:10f1a000000006000200fa00000f78001e00780040
:10f1b0004041880020c0b300adff07000080fa0086
:10f1c000000006000200fa00000f78009e007800a0
:10f1d000e141880000022800f0088800a00f20000c
:10f1e000d00888009760a8000080fa0000000600a0
:00000001FF
